{
  "_format": "hh-sol-artifact-1",
  "contractName": "Lock2",
  "sourceName": "contracts/Lock2.sol",
  "abi": [
    {
      "inputs": [
        {
          "internalType": "uint256",
          "name": "_unlockTime",
          "type": "uint256"
        },
        {
          "internalType": "string",
          "name": "banana",
          "type": "string"
        }
      ],
      "stateMutability": "nonpayable",
      "type": "constructor"
    },
    {
      "anonymous": false,
      "inputs": [
        {
          "indexed": false,
          "internalType": "uint256",
          "name": "amount",
          "type": "uint256"
        },
        {
          "indexed": false,
          "internalType": "uint256",
          "name": "when",
          "type": "uint256"
        },
        {
          "indexed": false,
          "internalType": "uint256",
          "name": "lockId",
          "type": "uint256"
        }
      ],
      "name": "Withdrawal",
      "type": "event"
    },
    {
      "inputs": [
        {
          "internalType": "address",
          "name": "",
          "type": "address"
        },
        {
          "internalType": "uint256",
          "name": "",
          "type": "uint256"
        }
      ],
      "name": "addressLocks",
      "outputs": [
        {
          "internalType": "uint256",
          "name": "",
          "type": "uint256"
        }
      ],
      "stateMutability": "view",
      "type": "function"
    },
    {
      "inputs": [],
      "name": "createLock",
      "outputs": [],
      "stateMutability": "payable",
      "type": "function"
    },
    {
      "inputs": [
        {
          "internalType": "uint256",
          "name": "lockId",
          "type": "uint256"
        }
      ],
      "name": "deposit",
      "outputs": [],
      "stateMutability": "payable",
      "type": "function"
    },
    {
      "inputs": [],
      "name": "lastId",
      "outputs": [
        {
          "internalType": "uint256",
          "name": "",
          "type": "uint256"
        }
      ],
      "stateMutability": "view",
      "type": "function"
    },
    {
      "inputs": [
        {
          "internalType": "uint256",
          "name": "",
          "type": "uint256"
        }
      ],
      "name": "locks",
      "outputs": [
        {
          "internalType": "uint256",
          "name": "balance",
          "type": "uint256"
        },
        {
          "internalType": "uint256",
          "name": "unlockTime",
          "type": "uint256"
        },
        {
          "internalType": "address",
          "name": "owner",
          "type": "address"
        },
        {
          "internalType": "uint256",
          "name": "id",
          "type": "uint256"
        }
      ],
      "stateMutability": "view",
      "type": "function"
    },
    {
      "inputs": [],
      "name": "owner",
      "outputs": [
        {
          "internalType": "address payable",
          "name": "",
          "type": "address"
        }
      ],
      "stateMutability": "view",
      "type": "function"
    },
    {
      "inputs": [],
      "name": "unlockTime",
      "outputs": [
        {
          "internalType": "uint256",
          "name": "",
          "type": "uint256"
        }
      ],
      "stateMutability": "view",
      "type": "function"
    },
    {
      "inputs": [
        {
          "internalType": "uint256",
          "name": "lockId",
          "type": "uint256"
        }
      ],
      "name": "withdraw",
      "outputs": [],
      "stateMutability": "nonpayable",
      "type": "function"
    }
  ],
  "bytecode": "0x608060405260006004553480156200001657600080fd5b50604051620010fa380380620010fa83398181016040528101906200003c919062000264565b8160008190555033600160006101000a81548173ffffffffffffffffffffffffffffffffffffffff021916908373ffffffffffffffffffffffffffffffffffffffff1602179055505050620002ca565b6000604051905090565b600080fd5b600080fd5b6000819050919050565b620000b581620000a0565b8114620000c157600080fd5b50565b600081519050620000d581620000aa565b92915050565b600080fd5b600080fd5b6000601f19601f8301169050919050565b7f4e487b7100000000000000000000000000000000000000000000000000000000600052604160045260246000fd5b6200013082620000e5565b810181811067ffffffffffffffff82111715620001525762000151620000f6565b5b80604052505050565b6000620001676200008c565b905062000175828262000125565b919050565b600067ffffffffffffffff821115620001985762000197620000f6565b5b620001a382620000e5565b9050602081019050919050565b60005b83811015620001d0578082015181840152602081019050620001b3565b83811115620001e0576000848401525b50505050565b6000620001fd620001f7846200017a565b6200015b565b9050828152602081018484840111156200021c576200021b620000e0565b5b62000229848285620001b0565b509392505050565b600082601f830112620002495762000248620000db565b5b81516200025b848260208601620001e6565b91505092915050565b600080604083850312156200027e576200027d62000096565b5b60006200028e85828601620000c4565b925050602083015167ffffffffffffffff811115620002b257620002b16200009b565b5b620002c08582860162000231565b9150509250929050565b610e2080620002da6000396000f3fe60806040526004361061007b5760003560e01c80638da5cb5b1161004e5780638da5cb5b1461011b578063b6b55f2514610146578063c1292cc314610162578063f4dadc611461018d5761007b565b8063251c1aa31461008057806328853d68146100ab5780632e1a7d4d146100b557806377b7c13f146100de575b600080fd5b34801561008c57600080fd5b506100956101cd565b6040516100a291906108a5565b60405180910390f35b6100b36101d3565b005b3480156100c157600080fd5b506100dc60048036038101906100d791906108f1565b61036e565b005b3480156100ea57600080fd5b506101056004803603810190610100919061097c565b6105ae565b60405161011291906108a5565b60405180910390f35b34801561012757600080fd5b506101306105df565b60405161013d91906109dd565b60405180910390f35b610160600480360381019061015b91906108f1565b610605565b005b34801561016e57600080fd5b50610177610774565b60405161018491906108a5565b60405180910390f35b34801561019957600080fd5b506101b460048036038101906101af91906108f1565b61077a565b6040516101c49493929190610a07565b60405180910390f35b60005481565b60003411610216576040517f08c379a000000000000000000000000000000000000000000000000000000000815260040161020d90610aa9565b60405180910390fd5b60006040518060800160405280348152602001600054426102379190610af8565b81526020013373ffffffffffffffffffffffffffffffffffffffff168152602001600454815250905061026d81600001516107ca565b80600360006004548152602001908152602001600020600082015181600001556020820151816001015560408201518160020160006101000a81548173ffffffffffffffffffffffffffffffffffffffff021916908373ffffffffffffffffffffffffffffffffffffffff16021790555060608201518160030155905050600260003373ffffffffffffffffffffffffffffffffffffffff1673ffffffffffffffffffffffffffffffffffffffff16815260200190815260200160002060045490806001815401808255809150506001900390600052602060002001600090919091909150556004600081548092919061036690610b4e565b919050555050565b60006003600083815260200190815260200160002060405180608001604052908160008201548152602001600182015481526020016002820160009054906101000a900473ffffffffffffffffffffffffffffffffffffffff1673ffffffffffffffffffffffffffffffffffffffff1673ffffffffffffffffffffffffffffffffffffffff1681526020016003820154815250509050806020015142101561044b576040517f08c379a000000000000000000000000000000000000000000000000000000000815260040161044290610be3565b60405180910390fd5b806040015173ffffffffffffffffffffffffffffffffffffffff163373ffffffffffffffffffffffffffffffffffffffff16146104bd576040517f08c379a00000000000000000000000000000000000000000000000000000000081526004016104b490610c4f565b60405180910390fd5b6000816000015111610504576040517f08c379a00000000000000000000000000000000000000000000000000000000081526004016104fb90610cbb565b60405180910390fd5b7f4de79efceb38f14026173a22fb2113555409a7a88343c2a780064d2ce0a00a878160000151428460405161053b93929190610cdb565b60405180910390a1600060036000848152602001908152602001600020600001819055503373ffffffffffffffffffffffffffffffffffffffff166108fc82600001519081150290604051600060405180830381858888f193505050501580156105a9573d6000803e3d6000fd5b505050565b600260205281600052604060002081815481106105ca57600080fd5b90600052602060002001600091509150505481565b600160009054906101000a900473ffffffffffffffffffffffffffffffffffffffff1681565b6003600082815260200190815260200160002060010154421061065d576040517f08c379a000000000000000000000000000000000000000000000000000000000815260040161065490610d5e565b60405180910390fd5b3373ffffffffffffffffffffffffffffffffffffffff166003600083815260200190815260200160002060020160009054906101000a900473ffffffffffffffffffffffffffffffffffffffff1673ffffffffffffffffffffffffffffffffffffffff1614610701576040517f08c379a00000000000000000000000000000000000000000000000000000000081526004016106f890610dca565b60405180910390fd5b60003411610744576040517f08c379a000000000000000000000000000000000000000000000000000000000815260040161073b90610aa9565b60405180910390fd5b3460036000838152602001908152602001600020600001600082825461076a9190610af8565b9250508190555050565b60045481565b60036020528060005260406000206000915090508060000154908060010154908060020160009054906101000a900473ffffffffffffffffffffffffffffffffffffffff16908060030154905084565b610860816040516024016107de91906108a5565b6040516020818303038152906040527ff5b1bba9000000000000000000000000000000000000000000000000000000007bffffffffffffffffffffffffffffffffffffffffffffffffffffffff19166020820180517bffffffffffffffffffffffffffffffffffffffffffffffffffffffff8381831617835250505050610863565b50565b60008151905060006a636f6e736f6c652e6c6f679050602083016000808483855afa5050505050565b6000819050919050565b61089f8161088c565b82525050565b60006020820190506108ba6000830184610896565b92915050565b600080fd5b6108ce8161088c565b81146108d957600080fd5b50565b6000813590506108eb816108c5565b92915050565b600060208284031215610907576109066108c0565b5b6000610915848285016108dc565b91505092915050565b600073ffffffffffffffffffffffffffffffffffffffff82169050919050565b60006109498261091e565b9050919050565b6109598161093e565b811461096457600080fd5b50565b60008135905061097681610950565b92915050565b60008060408385031215610993576109926108c0565b5b60006109a185828601610967565b92505060206109b2858286016108dc565b9150509250929050565b60006109c78261091e565b9050919050565b6109d7816109bc565b82525050565b60006020820190506109f260008301846109ce565b92915050565b610a018161093e565b82525050565b6000608082019050610a1c6000830187610896565b610a296020830186610896565b610a3660408301856109f8565b610a436060830184610896565b95945050505050565b600082825260208201905092915050565b7f2176616c75650000000000000000000000000000000000000000000000000000600082015250565b6000610a93600683610a4c565b9150610a9e82610a5d565b602082019050919050565b60006020820190508181036000830152610ac281610a86565b9050919050565b7f4e487b7100000000000000000000000000000000000000000000000000000000600052601160045260246000fd5b6000610b038261088c565b9150610b0e8361088c565b9250827fffffffffffffffffffffffffffffffffffffffffffffffffffffffffffffffff03821115610b4357610b42610ac9565b5b828201905092915050565b6000610b598261088c565b91507fffffffffffffffffffffffffffffffffffffffffffffffffffffffffffffffff821415610b8c57610b8b610ac9565b5b600182019050919050565b7f596f752063616e27742077697468647261772079657400000000000000000000600082015250565b6000610bcd601683610a4c565b9150610bd882610b97565b602082019050919050565b60006020820190508181036000830152610bfc81610bc0565b9050919050565b7f596f75206172656e277420746865206f776e6572000000000000000000000000600082015250565b6000610c39601483610a4c565b9150610c4482610c03565b602082019050919050565b60006020820190508181036000830152610c6881610c2c565b9050919050565b7f596f752063616e27742077697468647261772030000000000000000000000000600082015250565b6000610ca5601483610a4c565b9150610cb082610c6f565b602082019050919050565b60006020820190508181036000830152610cd481610c98565b9050919050565b6000606082019050610cf06000830186610896565b610cfd6020830185610896565b610d0a6040830184610896565b949350505050565b7f4c6f636b20697320616c72656164792065787069726564000000000000000000600082015250565b6000610d48601783610a4c565b9150610d5382610d12565b602082019050919050565b60006020820190508181036000830152610d7781610d3b565b9050919050565b7f216f776e65720000000000000000000000000000000000000000000000000000600082015250565b6000610db4600683610a4c565b9150610dbf82610d7e565b602082019050919050565b60006020820190508181036000830152610de381610da7565b905091905056fea264697066735822122069d858c6fda96940ada81ef089af6f5b7c2f92d184dc1b1e843526bcb4adbbc364736f6c63430008090033",
  "linkReferences": {},
  "deployedLinkReferences": {}
}