{
  "_format": "hh-sol-artifact-1",
  "contractName": "Lock",
  "sourceName": "contracts/Lock.sol",
  "abi": [
    {
      "inputs": [
        {
          "internalType": "uint256",
          "name": "_unlockTime",
          "type": "uint256"
        }
      ],
      "stateMutability": "payable",
      "type": "constructor"
    },
    {
      "anonymous": false,
      "inputs": [
        {
          "indexed": false,
          "internalType": "uint256",
          "name": "amount",
          "type": "uint256"
        },
        {
          "indexed": false,
          "internalType": "uint256",
          "name": "when",
          "type": "uint256"
        }
      ],
      "name": "Withdrawal",
      "type": "event"
    },
    {
      "inputs": [
        {
          "internalType": "address",
          "name": "",
          "type": "address"
        }
      ],
      "name": "balance",
      "outputs": [
        {
          "internalType": "uint256",
          "name": "",
          "type": "uint256"
        }
      ],
      "stateMutability": "view",
      "type": "function"
    },
    {
      "inputs": [],
      "name": "deposit",
      "outputs": [],
      "stateMutability": "payable",
      "type": "function"
    },
    {
      "inputs": [],
      "name": "owner",
      "outputs": [
        {
          "internalType": "address payable",
          "name": "",
          "type": "address"
        }
      ],
      "stateMutability": "view",
      "type": "function"
    },
    {
      "inputs": [],
      "name": "unlockTime",
      "outputs": [
        {
          "internalType": "uint256",
          "name": "",
          "type": "uint256"
        }
      ],
      "stateMutability": "view",
      "type": "function"
    },
    {
      "inputs": [],
      "name": "withdraw",
      "outputs": [],
      "stateMutability": "nonpayable",
      "type": "function"
    }
  ],
  "bytecode": "0x6080604052604051610864380380610864833981810160405281019061002591906100f0565b804210610067576040517f08c379a000000000000000000000000000000000000000000000000000000000815260040161005e906101a0565b60405180910390fd5b8060008190555033600160006101000a81548173ffffffffffffffffffffffffffffffffffffffff021916908373ffffffffffffffffffffffffffffffffffffffff160217905550506101c0565b600080fd5b6000819050919050565b6100cd816100ba565b81146100d857600080fd5b50565b6000815190506100ea816100c4565b92915050565b600060208284031215610106576101056100b5565b5b6000610114848285016100db565b91505092915050565b600082825260208201905092915050565b7f556e6c6f636b2074696d652073686f756c6420626520696e207468652066757460008201527f7572650000000000000000000000000000000000000000000000000000000000602082015250565b600061018a60238361011d565b91506101958261012e565b604082019050919050565b600060208201905081810360008301526101b98161017d565b9050919050565b610695806101cf6000396000f3fe60806040526004361061004a5760003560e01c8063251c1aa31461004f5780633ccfd60b1461007a5780638da5cb5b14610091578063d0e30db0146100bc578063e3d670d7146100c6575b600080fd5b34801561005b57600080fd5b50610064610103565b6040516100719190610375565b60405180910390f35b34801561008657600080fd5b5061008f610109565b005b34801561009d57600080fd5b506100a6610282565b6040516100b391906103d1565b60405180910390f35b6100c46102a8565b005b3480156100d257600080fd5b506100ed60048036038101906100e8919061042f565b610344565b6040516100fa9190610375565b60405180910390f35b60005481565b60005442101561014e576040517f08c379a0000000000000000000000000000000000000000000000000000000008152600401610145906104b9565b60405180910390fd5b600160009054906101000a900473ffffffffffffffffffffffffffffffffffffffff1673ffffffffffffffffffffffffffffffffffffffff163373ffffffffffffffffffffffffffffffffffffffff16146101de576040517f08c379a00000000000000000000000000000000000000000000000000000000081526004016101d590610525565b60405180910390fd5b7fbf2ed60bd5b5965d685680c01195c9514e4382e28e3a5a2d2d5244bf59411b93474260405161020f929190610545565b60405180910390a1600160009054906101000a900473ffffffffffffffffffffffffffffffffffffffff1673ffffffffffffffffffffffffffffffffffffffff166108fc479081150290604051600060405180830381858888f1935050505015801561027f573d6000803e3d6000fd5b50565b600160009054906101000a900473ffffffffffffffffffffffffffffffffffffffff1681565b60005442106102ec576040517f08c379a00000000000000000000000000000000000000000000000000000000081526004016102e3906105ba565b60405180910390fd5b34600260003373ffffffffffffffffffffffffffffffffffffffff1673ffffffffffffffffffffffffffffffffffffffff168152602001908152602001600020600082825461033b9190610609565b92505081905550565b60026020528060005260406000206000915090505481565b6000819050919050565b61036f8161035c565b82525050565b600060208201905061038a6000830184610366565b92915050565b600073ffffffffffffffffffffffffffffffffffffffff82169050919050565b60006103bb82610390565b9050919050565b6103cb816103b0565b82525050565b60006020820190506103e660008301846103c2565b92915050565b600080fd5b60006103fc82610390565b9050919050565b61040c816103f1565b811461041757600080fd5b50565b60008135905061042981610403565b92915050565b600060208284031215610445576104446103ec565b5b60006104538482850161041a565b91505092915050565b600082825260208201905092915050565b7f596f752063616e27742077697468647261772079657400000000000000000000600082015250565b60006104a360168361045c565b91506104ae8261046d565b602082019050919050565b600060208201905081810360008301526104d281610496565b9050919050565b7f596f75206172656e277420746865206f776e6572000000000000000000000000600082015250565b600061050f60148361045c565b915061051a826104d9565b602082019050919050565b6000602082019050818103600083015261053e81610502565b9050919050565b600060408201905061055a6000830185610366565b6105676020830184610366565b9392505050565b7f4c6f636b20697320616c72656164792065787069726564000000000000000000600082015250565b60006105a460178361045c565b91506105af8261056e565b602082019050919050565b600060208201905081810360008301526105d381610597565b9050919050565b7f4e487b7100000000000000000000000000000000000000000000000000000000600052601160045260246000fd5b60006106148261035c565b915061061f8361035c565b9250827fffffffffffffffffffffffffffffffffffffffffffffffffffffffffffffffff03821115610654576106536105da565b5b82820190509291505056fea2646970667358221220a03f13f5d0a64ec02c70b3269297f1276977a28fe477f834e843f9268f99e3f664736f6c63430008090033",
  "linkReferences": {},
  "deployedLinkReferences": {}
}